{
  "contractName": "LoveOfMyLife",
  "abi": [
    {
      "inputs": [],
      "stateMutability": "nonpayable",
      "type": "constructor"
    },
    {
      "anonymous": false,
      "inputs": [
        {
          "indexed": true,
          "internalType": "address",
          "name": "owner",
          "type": "address"
        },
        {
          "indexed": true,
          "internalType": "address",
          "name": "spender",
          "type": "address"
        },
        {
          "indexed": false,
          "internalType": "uint256",
          "name": "value",
          "type": "uint256"
        }
      ],
      "name": "Approval",
      "type": "event"
    },
    {
      "anonymous": false,
      "inputs": [
        {
          "indexed": true,
          "internalType": "address",
          "name": "previousOwner",
          "type": "address"
        },
        {
          "indexed": true,
          "internalType": "address",
          "name": "newOwner",
          "type": "address"
        }
      ],
      "name": "OwnershipTransferred",
      "type": "event"
    },
    {
      "anonymous": false,
      "inputs": [
        {
          "indexed": true,
          "internalType": "address",
          "name": "from",
          "type": "address"
        },
        {
          "indexed": true,
          "internalType": "address",
          "name": "to",
          "type": "address"
        },
        {
          "indexed": false,
          "internalType": "uint256",
          "name": "value",
          "type": "uint256"
        }
      ],
      "name": "Transfer",
      "type": "event"
    },
    {
      "inputs": [
        {
          "internalType": "address",
          "name": "owner",
          "type": "address"
        },
        {
          "internalType": "address",
          "name": "spender",
          "type": "address"
        }
      ],
      "name": "allowance",
      "outputs": [
        {
          "internalType": "uint256",
          "name": "",
          "type": "uint256"
        }
      ],
      "stateMutability": "view",
      "type": "function"
    },
    {
      "inputs": [
        {
          "internalType": "address",
          "name": "spender",
          "type": "address"
        },
        {
          "internalType": "uint256",
          "name": "amount",
          "type": "uint256"
        }
      ],
      "name": "approve",
      "outputs": [
        {
          "internalType": "bool",
          "name": "",
          "type": "bool"
        }
      ],
      "stateMutability": "nonpayable",
      "type": "function"
    },
    {
      "inputs": [
        {
          "internalType": "address",
          "name": "account",
          "type": "address"
        }
      ],
      "name": "balanceOf",
      "outputs": [
        {
          "internalType": "uint256",
          "name": "",
          "type": "uint256"
        }
      ],
      "stateMutability": "view",
      "type": "function"
    },
    {
      "inputs": [],
      "name": "decimals",
      "outputs": [
        {
          "internalType": "uint8",
          "name": "",
          "type": "uint8"
        }
      ],
      "stateMutability": "view",
      "type": "function"
    },
    {
      "inputs": [
        {
          "internalType": "address",
          "name": "spender",
          "type": "address"
        },
        {
          "internalType": "uint256",
          "name": "subtractedValue",
          "type": "uint256"
        }
      ],
      "name": "decreaseAllowance",
      "outputs": [
        {
          "internalType": "bool",
          "name": "",
          "type": "bool"
        }
      ],
      "stateMutability": "nonpayable",
      "type": "function"
    },
    {
      "inputs": [
        {
          "internalType": "address",
          "name": "spender",
          "type": "address"
        },
        {
          "internalType": "uint256",
          "name": "addedValue",
          "type": "uint256"
        }
      ],
      "name": "increaseAllowance",
      "outputs": [
        {
          "internalType": "bool",
          "name": "",
          "type": "bool"
        }
      ],
      "stateMutability": "nonpayable",
      "type": "function"
    },
    {
      "inputs": [],
      "name": "name",
      "outputs": [
        {
          "internalType": "string",
          "name": "",
          "type": "string"
        }
      ],
      "stateMutability": "view",
      "type": "function"
    },
    {
      "inputs": [],
      "name": "owner",
      "outputs": [
        {
          "internalType": "address",
          "name": "",
          "type": "address"
        }
      ],
      "stateMutability": "view",
      "type": "function"
    },
    {
      "inputs": [],
      "name": "rate",
      "outputs": [
        {
          "internalType": "uint256",
          "name": "",
          "type": "uint256"
        }
      ],
      "stateMutability": "view",
      "type": "function"
    },
    {
      "inputs": [],
      "name": "renounceOwnership",
      "outputs": [],
      "stateMutability": "nonpayable",
      "type": "function"
    },
    {
      "inputs": [],
      "name": "symbol",
      "outputs": [
        {
          "internalType": "string",
          "name": "",
          "type": "string"
        }
      ],
      "stateMutability": "view",
      "type": "function"
    },
    {
      "inputs": [],
      "name": "totalSupply",
      "outputs": [
        {
          "internalType": "uint256",
          "name": "",
          "type": "uint256"
        }
      ],
      "stateMutability": "view",
      "type": "function"
    },
    {
      "inputs": [
        {
          "internalType": "address",
          "name": "to",
          "type": "address"
        },
        {
          "internalType": "uint256",
          "name": "amount",
          "type": "uint256"
        }
      ],
      "name": "transfer",
      "outputs": [
        {
          "internalType": "bool",
          "name": "",
          "type": "bool"
        }
      ],
      "stateMutability": "nonpayable",
      "type": "function"
    },
    {
      "inputs": [
        {
          "internalType": "address",
          "name": "from",
          "type": "address"
        },
        {
          "internalType": "address",
          "name": "to",
          "type": "address"
        },
        {
          "internalType": "uint256",
          "name": "amount",
          "type": "uint256"
        }
      ],
      "name": "transferFrom",
      "outputs": [
        {
          "internalType": "bool",
          "name": "",
          "type": "bool"
        }
      ],
      "stateMutability": "nonpayable",
      "type": "function"
    },
    {
      "inputs": [
        {
          "internalType": "address",
          "name": "newOwner",
          "type": "address"
        }
      ],
      "name": "transferOwnership",
      "outputs": [],
      "stateMutability": "nonpayable",
      "type": "function"
    },
    {
      "inputs": [
        {
          "internalType": "uint256",
          "name": "newRate",
          "type": "uint256"
        }
      ],
      "name": "modifyTokenBuyPrice",
      "outputs": [],
      "stateMutability": "nonpayable",
      "type": "function"
    },
    {
      "inputs": [
        {
          "internalType": "address",
          "name": "buyer",
          "type": "address"
        }
      ],
      "name": "buyToken",
      "outputs": [
        {
          "internalType": "uint256",
          "name": "amount",
          "type": "uint256"
        }
      ],
      "stateMutability": "payable",
      "type": "function"
    },
    {
      "inputs": [
        {
          "internalType": "address",
          "name": "stakeholder_address",
          "type": "address"
        }
      ],
      "name": "isStakeholder",
      "outputs": [
        {
          "internalType": "bool",
          "name": "",
          "type": "bool"
        },
        {
          "internalType": "uint256",
          "name": "",
          "type": "uint256"
        }
      ],
      "stateMutability": "view",
      "type": "function"
    },
    {
      "inputs": [
        {
          "internalType": "address",
          "name": "staker",
          "type": "address"
        }
      ],
      "name": "addStakeholder",
      "outputs": [],
      "stateMutability": "nonpayable",
      "type": "function"
    },
    {
      "inputs": [
        {
          "internalType": "address",
          "name": "staker",
          "type": "address"
        }
      ],
      "name": "removeStakeholder",
      "outputs": [],
      "stateMutability": "nonpayable",
      "type": "function"
    },
    {
      "inputs": [
        {
          "internalType": "address",
          "name": "staker",
          "type": "address"
        }
      ],
      "name": "viewStakeholder",
      "outputs": [],
      "stateMutability": "nonpayable",
      "type": "function"
    },
    {
      "inputs": [
        {
          "internalType": "address",
          "name": "staker",
          "type": "address"
        }
      ],
      "name": "stakeOf",
      "outputs": [
        {
          "internalType": "uint256",
          "name": "",
          "type": "uint256"
        }
      ],
      "stateMutability": "view",
      "type": "function"
    },
    {
      "inputs": [],
      "name": "combinedStake",
      "outputs": [
        {
          "internalType": "uint256",
          "name": "",
          "type": "uint256"
        }
      ],
      "stateMutability": "view",
      "type": "function"
    },
    {
      "inputs": [
        {
          "internalType": "address",
          "name": "staker",
          "type": "address"
        },
        {
          "internalType": "uint256",
          "name": "_stake",
          "type": "uint256"
        }
      ],
      "name": "createStake",
      "outputs": [],
      "stateMutability": "nonpayable",
      "type": "function"
    },
    {
      "inputs": [
        {
          "internalType": "address",
          "name": "staker",
          "type": "address"
        },
        {
          "internalType": "uint256",
          "name": "_stake",
          "type": "uint256"
        }
      ],
      "name": "removeStake",
      "outputs": [],
      "stateMutability": "nonpayable",
      "type": "function"
    },
    {
      "inputs": [
        {
          "internalType": "address",
          "name": "staker",
          "type": "address"
        }
      ],
      "name": "rewardOf",
      "outputs": [
        {
          "internalType": "uint256",
          "name": "",
          "type": "uint256"
        }
      ],
      "stateMutability": "view",
      "type": "function"
    },
    {
      "inputs": [],
      "name": "combinedRewards",
      "outputs": [
        {
          "internalType": "uint256",
          "name": "",
          "type": "uint256"
        }
      ],
      "stateMutability": "view",
      "type": "function"
    },
    {
      "inputs": [
        {
          "internalType": "address",
          "name": "staker",
          "type": "address"
        }
      ],
      "name": "calculateReward",
      "outputs": [
        {
          "internalType": "uint256",
          "name": "",
          "type": "uint256"
        }
      ],
      "stateMutability": "view",
      "type": "function"
    },
    {
      "inputs": [],
      "name": "distributeRewards",
      "outputs": [],
      "stateMutability": "nonpayable",
      "type": "function"
    }
  ],
  "bytecode": "0x60806040526103e86007553480156200001757600080fd5b506040518060400160405280600c81526020017f4c6f76654f664d794c69666500000000000000000000000000000000000000008152506040518060400160405280600481526020017f4c4f4d4c0000000000000000000000000000000000000000000000000000000081525081600390805190602001906200009c92919062000376565b508060049080519060200190620000b592919062000376565b505050620000d8620000cc6200011c60201b60201c565b6200012460201b60201c565b6200011633620000ed620001ea60201b60201c565b600a620000fb9190620005c0565b6103e86200010a919062000611565b620001f360201b60201c565b620007e5565b600033905090565b6000600560009054906101000a900473ffffffffffffffffffffffffffffffffffffffff16905081600560006101000a81548173ffffffffffffffffffffffffffffffffffffffff021916908373ffffffffffffffffffffffffffffffffffffffff1602179055508173ffffffffffffffffffffffffffffffffffffffff168173ffffffffffffffffffffffffffffffffffffffff167f8be0079c531659141344cd1fd0a4f28419497f9722a3daafe3b4186f6b6457e060405160405180910390a35050565b60006012905090565b600073ffffffffffffffffffffffffffffffffffffffff168273ffffffffffffffffffffffffffffffffffffffff16141562000266576040517f08c379a00000000000000000000000000000000000000000000000000000000081526004016200025d90620006d3565b60405180910390fd5b6200027a600083836200036c60201b60201c565b80600260008282546200028e9190620006f5565b92505081905550806000808473ffffffffffffffffffffffffffffffffffffffff1673ffffffffffffffffffffffffffffffffffffffff1681526020019081526020016000206000828254620002e59190620006f5565b925050819055508173ffffffffffffffffffffffffffffffffffffffff16600073ffffffffffffffffffffffffffffffffffffffff167fddf252ad1be2c89b69c2b068fc378daa952ba7f163c4a11628f55a4df523b3ef836040516200034c919062000763565b60405180910390a362000368600083836200037160201b60201c565b5050565b505050565b505050565b8280546200038490620007af565b90600052602060002090601f016020900481019282620003a85760008555620003f4565b82601f10620003c357805160ff1916838001178555620003f4565b82800160010185558215620003f4579182015b82811115620003f3578251825591602001919060010190620003d6565b5b50905062000403919062000407565b5090565b5b808211156200042257600081600090555060010162000408565b5090565b7f4e487b7100000000000000000000000000000000000000000000000000000000600052601160045260246000fd5b60008160011c9050919050565b6000808291508390505b6001851115620004b4578086048111156200048c576200048b62000426565b5b60018516156200049c5780820291505b8081029050620004ac8562000455565b94506200046c565b94509492505050565b600082620004cf5760019050620005a2565b81620004df5760009050620005a2565b8160018114620004f85760028114620005035762000539565b6001915050620005a2565b60ff84111562000518576200051762000426565b5b8360020a91508482111562000532576200053162000426565b5b50620005a2565b5060208310610133831016604e8410600b8410161715620005735782820a9050838111156200056d576200056c62000426565b5b620005a2565b62000582848484600162000462565b925090508184048111156200059c576200059b62000426565b5b81810290505b9392505050565b6000819050919050565b600060ff82169050919050565b6000620005cd82620005a9565b9150620005da83620005b3565b9250620006097fffffffffffffffffffffffffffffffffffffffffffffffffffffffffffffffff8484620004bd565b905092915050565b60006200061e82620005a9565b91506200062b83620005a9565b9250817fffffffffffffffffffffffffffffffffffffffffffffffffffffffffffffffff048311821515161562000667576200066662000426565b5b828202905092915050565b600082825260208201905092915050565b7f45524332303a206d696e7420746f20746865207a65726f206164647265737300600082015250565b6000620006bb601f8362000672565b9150620006c88262000683565b602082019050919050565b60006020820190508181036000830152620006ee81620006ac565b9050919050565b60006200070282620005a9565b91506200070f83620005a9565b9250827fffffffffffffffffffffffffffffffffffffffffffffffffffffffffffffffff0382111562000747576200074662000426565b5b828201905092915050565b6200075d81620005a9565b82525050565b60006020820190506200077a600083018462000752565b92915050565b7f4e487b7100000000000000000000000000000000000000000000000000000000600052602260045260246000fd5b60006002820490506001821680620007c857607f821691505b60208210811415620007df57620007de62000780565b5b50919050565b612c6080620007f56000396000f3fe6080604052600436106101c25760003560e01c80637104dd0d116100f7578063a9059cbb11610095578063dd62ed3e11610064578063dd62ed3e1461066f578063e5c42fd1146106ac578063ef037b90146106d5578063f2fde38b14610713576101c2565b8063a9059cbb146105a3578063bcb0c2d7146105e0578063d82e396214610609578063d86f5a6b14610646576101c2565b8063834dc984116100d1578063834dc984146104e75780638da5cb5b1461051057806395d89b411461053b578063a457c2d714610566576101c2565b80637104dd0d14610475578063715018a6146104a05780637e72fb52146104b7576101c2565b80632c4e722e11610164578063426233601161013e57806342623360146103bb57806368ce7d8a146103f85780636f4a2cd01461042157806370a0823114610438576101c2565b80632c4e722e14610328578063313ce56714610353578063395093511461037e576101c2565b806318160ddd116101a057806318160ddd1461025857806319f6461a146102835780631d62ebd9146102ae57806323b872dd146102eb576101c2565b806306fdde03146101c7578063095ea7b3146101f2578063128a5f1c1461022f575b600080fd5b3480156101d357600080fd5b506101dc61073c565b6040516101e9919061202e565b60405180910390f35b3480156101fe57600080fd5b50610219600480360381019061021491906120e9565b6107ce565b6040516102269190612144565b60405180910390f35b34801561023b57600080fd5b506102566004803603810190610251919061215f565b6107f1565b005b34801561026457600080fd5b5061026d61086c565b60405161027a919061219b565b60405180910390f35b34801561028f57600080fd5b50610298610876565b6040516102a5919061219b565b60405180910390f35b3480156102ba57600080fd5b506102d560048036038101906102d0919061215f565b61093b565b6040516102e2919061219b565b60405180910390f35b3480156102f757600080fd5b50610312600480360381019061030d91906121b6565b610984565b60405161031f9190612144565b60405180910390f35b34801561033457600080fd5b5061033d6109b3565b60405161034a919061219b565b60405180910390f35b34801561035f57600080fd5b506103686109b9565b6040516103759190612225565b60405180910390f35b34801561038a57600080fd5b506103a560048036038101906103a091906120e9565b6109c2565b6040516103b29190612144565b60405180910390f35b3480156103c757600080fd5b506103e260048036038101906103dd919061215f565b610a6c565b6040516103ef919061219b565b60405180910390f35b34801561040457600080fd5b5061041f600480360381019061041a91906120e9565b610ab5565b005b34801561042d57600080fd5b50610436610baa565b005b34801561044457600080fd5b5061045f600480360381019061045a919061215f565b610d34565b60405161046c919061219b565b60405180910390f35b34801561048157600080fd5b5061048a610d7c565b604051610497919061219b565b60405180910390f35b3480156104ac57600080fd5b506104b5610e41565b005b6104d160048036038101906104cc919061215f565b610ec9565b6040516104de919061219b565b60405180910390f35b3480156104f357600080fd5b5061050e60048036038101906105099190612240565b610f2c565b005b34801561051c57600080fd5b50610525610fb2565b604051610532919061227c565b60405180910390f35b34801561054757600080fd5b50610550610fdc565b60405161055d919061202e565b60405180910390f35b34801561057257600080fd5b5061058d600480360381019061058891906120e9565b61106e565b60405161059a9190612144565b60405180910390f35b3480156105af57600080fd5b506105ca60048036038101906105c591906120e9565b611158565b6040516105d79190612144565b60405180910390f35b3480156105ec57600080fd5b506106076004803603810190610602919061215f565b61117b565b005b34801561061557600080fd5b50610630600480360381019061062b919061215f565b61128a565b60405161063d919061219b565b60405180910390f35b34801561065257600080fd5b5061066d600480360381019061066891906120e9565b6112df565b005b34801561067b57600080fd5b5061069660048036038101906106919190612297565b6113d4565b6040516106a3919061219b565b60405180910390f35b3480156106b857600080fd5b506106d360048036038101906106ce919061215f565b61145b565b005b3480156106e157600080fd5b506106fc60048036038101906106f7919061215f565b6114d6565b60405161070a9291906122d7565b60405180910390f35b34801561071f57600080fd5b5061073a6004803603810190610735919061215f565b61158a565b005b60606003805461074b9061232f565b80601f01602080910402602001604051908101604052809291908181526020018280546107779061232f565b80156107c45780601f10610799576101008083540402835291602001916107c4565b820191906000526020600020905b8154815290600101906020018083116107a757829003601f168201915b5050505050905090565b6000806107d9611682565b90506107e681858561168a565b600191505092915050565b60006107fc826114d6565b50905080610868576006829080600181540180825580915050600190039060005260206000200160009091909190916101000a81548173ffffffffffffffffffffffffffffffffffffffff021916908373ffffffffffffffffffffffffffffffffffffffff1602179055505b5050565b6000600254905090565b6000806000905060005b6006805490508110156109335761091d60096000600684815481106108a8576108a7612361565b5b9060005260206000200160009054906101000a900473ffffffffffffffffffffffffffffffffffffffff1673ffffffffffffffffffffffffffffffffffffffff1673ffffffffffffffffffffffffffffffffffffffff168152602001908152602001600020548361185590919063ffffffff16565b915060018161092c91906123bf565b9050610880565b508091505090565b6000600960008373ffffffffffffffffffffffffffffffffffffffff1673ffffffffffffffffffffffffffffffffffffffff168152602001908152602001600020549050919050565b60008061098f611682565b905061099c85828561186b565b6109a78585856118f7565b60019150509392505050565b60075481565b60006012905090565b6000806109cd611682565b9050610a61818585600160008673ffffffffffffffffffffffffffffffffffffffff1673ffffffffffffffffffffffffffffffffffffffff16815260200190815260200160002060008973ffffffffffffffffffffffffffffffffffffffff1673ffffffffffffffffffffffffffffffffffffffff16815260200190815260200160002054610a5c91906123bf565b61168a565b600191505092915050565b6000600860008373ffffffffffffffffffffffffffffffffffffffff1673ffffffffffffffffffffffffffffffffffffffff168152602001908152602001600020549050919050565b610b0781600860008573ffffffffffffffffffffffffffffffffffffffff1673ffffffffffffffffffffffffffffffffffffffff16815260200190815260200160002054611b7890919063ffffffff16565b600860008473ffffffffffffffffffffffffffffffffffffffff1673ffffffffffffffffffffffffffffffffffffffff168152602001908152602001600020819055506000600860008473ffffffffffffffffffffffffffffffffffffffff1673ffffffffffffffffffffffffffffffffffffffff168152602001908152602001600020541415610b9c57610b9b8261117b565b5b610ba68282611b8e565b5050565b610bb2611682565b73ffffffffffffffffffffffffffffffffffffffff16610bd0610fb2565b73ffffffffffffffffffffffffffffffffffffffff1614610c26576040517f08c379a0000000000000000000000000000000000000000000000000000000008152600401610c1d90612461565b60405180910390fd5b60005b600680549050811015610d3157600060068281548110610c4c57610c4b612361565b5b9060005260206000200160009054906101000a900473ffffffffffffffffffffffffffffffffffffffff1690506000610c848261128a565b9050610cd881600960008573ffffffffffffffffffffffffffffffffffffffff1673ffffffffffffffffffffffffffffffffffffffff1681526020019081526020016000205461185590919063ffffffff16565b600960008473ffffffffffffffffffffffffffffffffffffffff1673ffffffffffffffffffffffffffffffffffffffff168152602001908152602001600020819055505050600181610d2a91906123bf565b9050610c29565b50565b60008060008373ffffffffffffffffffffffffffffffffffffffff1673ffffffffffffffffffffffffffffffffffffffff168152602001908152602001600020549050919050565b6000806000905060005b600680549050811015610e3957610e236008600060068481548110610dae57610dad612361565b5b9060005260206000200160009054906101000a900473ffffffffffffffffffffffffffffffffffffffff1673ffffffffffffffffffffffffffffffffffffffff1673ffffffffffffffffffffffffffffffffffffffff168152602001908152602001600020548361185590919063ffffffff16565b9150600181610e3291906123bf565b9050610d86565b508091505090565b610e49611682565b73ffffffffffffffffffffffffffffffffffffffff16610e67610fb2565b73ffffffffffffffffffffffffffffffffffffffff1614610ebd576040517f08c379a0000000000000000000000000000000000000000000000000000000008152600401610eb490612461565b60405180910390fd5b610ec76000611cee565b565b6000803411610f0d576040517f08c379a0000000000000000000000000000000000000000000000000000000008152600401610f04906124f3565b60405180910390fd5b60075434610f1b9190612513565b9050610f278282611b8e565b919050565b610f34611682565b73ffffffffffffffffffffffffffffffffffffffff16610f52610fb2565b73ffffffffffffffffffffffffffffffffffffffff1614610fa8576040517f08c379a0000000000000000000000000000000000000000000000000000000008152600401610f9f90612461565b60405180910390fd5b8060078190555050565b6000600560009054906101000a900473ffffffffffffffffffffffffffffffffffffffff16905090565b606060048054610feb9061232f565b80601f01602080910402602001604051908101604052809291908181526020018280546110179061232f565b80156110645780601f1061103957610100808354040283529160200191611064565b820191906000526020600020905b81548152906001019060200180831161104757829003601f168201915b5050505050905090565b600080611079611682565b90506000600160008373ffffffffffffffffffffffffffffffffffffffff1673ffffffffffffffffffffffffffffffffffffffff16815260200190815260200160002060008673ffffffffffffffffffffffffffffffffffffffff1673ffffffffffffffffffffffffffffffffffffffff1681526020019081526020016000205490508381101561113f576040517f08c379a0000000000000000000000000000000000000000000000000000000008152600401611136906125df565b60405180910390fd5b61114c828686840361168a565b60019250505092915050565b600080611163611682565b90506111708185856118f7565b600191505092915050565b600080611187836114d6565b91509150811561128557600660016006805490506111a591906125ff565b815481106111b6576111b5612361565b5b9060005260206000200160009054906101000a900473ffffffffffffffffffffffffffffffffffffffff16600682815481106111f5576111f4612361565b5b9060005260206000200160006101000a81548173ffffffffffffffffffffffffffffffffffffffff021916908373ffffffffffffffffffffffffffffffffffffffff160217905550600680548061124f5761124e612633565b5b6001900381819060005260206000200160006101000a81549073ffffffffffffffffffffffffffffffffffffffff021916905590555b505050565b60006064600860008473ffffffffffffffffffffffffffffffffffffffff1673ffffffffffffffffffffffffffffffffffffffff168152602001908152602001600020546112d89190612691565b9050919050565b6112e98282611db4565b6000600860008473ffffffffffffffffffffffffffffffffffffffff1673ffffffffffffffffffffffffffffffffffffffff16815260200190815260200160002054141561133b5761133a8261145b565b5b61138d81600860008573ffffffffffffffffffffffffffffffffffffffff1673ffffffffffffffffffffffffffffffffffffffff1681526020019081526020016000205461185590919063ffffffff16565b600860008473ffffffffffffffffffffffffffffffffffffffff1673ffffffffffffffffffffffffffffffffffffffff168152602001908152602001600020819055505050565b6000600160008473ffffffffffffffffffffffffffffffffffffffff1673ffffffffffffffffffffffffffffffffffffffff16815260200190815260200160002060008373ffffffffffffffffffffffffffffffffffffffff1673ffffffffffffffffffffffffffffffffffffffff16815260200190815260200160002054905092915050565b6000611466826114d6565b509050806114d2576006829080600181540180825580915050600190039060005260206000200160009091909190916101000a81548173ffffffffffffffffffffffffffffffffffffffff021916908373ffffffffffffffffffffffffffffffffffffffff1602179055505b5050565b60008060005b60068054905081101561157c57600681815481106114fd576114fc612361565b5b9060005260206000200160009054906101000a900473ffffffffffffffffffffffffffffffffffffffff1673ffffffffffffffffffffffffffffffffffffffff168473ffffffffffffffffffffffffffffffffffffffff161415611568576001819250925050611585565b60018161157591906123bf565b90506114dc565b50600080915091505b915091565b611592611682565b73ffffffffffffffffffffffffffffffffffffffff166115b0610fb2565b73ffffffffffffffffffffffffffffffffffffffff1614611606576040517f08c379a00000000000000000000000000000000000000000000000000000000081526004016115fd90612461565b60405180910390fd5b600073ffffffffffffffffffffffffffffffffffffffff168173ffffffffffffffffffffffffffffffffffffffff161415611676576040517f08c379a000000000000000000000000000000000000000000000000000000000815260040161166d90612734565b60405180910390fd5b61167f81611cee565b50565b600033905090565b600073ffffffffffffffffffffffffffffffffffffffff168373ffffffffffffffffffffffffffffffffffffffff1614156116fa576040517f08c379a00000000000000000000000000000000000000000000000000000000081526004016116f1906127c6565b60405180910390fd5b600073ffffffffffffffffffffffffffffffffffffffff168273ffffffffffffffffffffffffffffffffffffffff16141561176a576040517f08c379a000000000000000000000000000000000000000000000000000000000815260040161176190612858565b60405180910390fd5b80600160008573ffffffffffffffffffffffffffffffffffffffff1673ffffffffffffffffffffffffffffffffffffffff16815260200190815260200160002060008473ffffffffffffffffffffffffffffffffffffffff1673ffffffffffffffffffffffffffffffffffffffff168152602001908152602001600020819055508173ffffffffffffffffffffffffffffffffffffffff168373ffffffffffffffffffffffffffffffffffffffff167f8c5be1e5ebec7d5bd14f71427d1e84f3dd0314c0f7b2291e5b200ac8c7c3b92583604051611848919061219b565b60405180910390a3505050565b6000818361186391906123bf565b905092915050565b600061187784846113d4565b90507fffffffffffffffffffffffffffffffffffffffffffffffffffffffffffffffff81146118f157818110156118e3576040517f08c379a00000000000000000000000000000000000000000000000000000000081526004016118da906128c4565b60405180910390fd5b6118f0848484840361168a565b5b50505050565b600073ffffffffffffffffffffffffffffffffffffffff168373ffffffffffffffffffffffffffffffffffffffff161415611967576040517f08c379a000000000000000000000000000000000000000000000000000000000815260040161195e90612956565b60405180910390fd5b600073ffffffffffffffffffffffffffffffffffffffff168273ffffffffffffffffffffffffffffffffffffffff1614156119d7576040517f08c379a00000000000000000000000000000000000000000000000000000000081526004016119ce906129e8565b60405180910390fd5b6119e2838383611f8b565b60008060008573ffffffffffffffffffffffffffffffffffffffff1673ffffffffffffffffffffffffffffffffffffffff16815260200190815260200160002054905081811015611a68576040517f08c379a0000000000000000000000000000000000000000000000000000000008152600401611a5f90612a7a565b60405180910390fd5b8181036000808673ffffffffffffffffffffffffffffffffffffffff1673ffffffffffffffffffffffffffffffffffffffff16815260200190815260200160002081905550816000808573ffffffffffffffffffffffffffffffffffffffff1673ffffffffffffffffffffffffffffffffffffffff1681526020019081526020016000206000828254611afb91906123bf565b925050819055508273ffffffffffffffffffffffffffffffffffffffff168473ffffffffffffffffffffffffffffffffffffffff167fddf252ad1be2c89b69c2b068fc378daa952ba7f163c4a11628f55a4df523b3ef84604051611b5f919061219b565b60405180910390a3611b72848484611f90565b50505050565b60008183611b8691906125ff565b905092915050565b600073ffffffffffffffffffffffffffffffffffffffff168273ffffffffffffffffffffffffffffffffffffffff161415611bfe576040517f08c379a0000000000000000000000000000000000000000000000000000000008152600401611bf590612ae6565b60405180910390fd5b611c0a60008383611f8b565b8060026000828254611c1c91906123bf565b92505081905550806000808473ffffffffffffffffffffffffffffffffffffffff1673ffffffffffffffffffffffffffffffffffffffff1681526020019081526020016000206000828254611c7191906123bf565b925050819055508173ffffffffffffffffffffffffffffffffffffffff16600073ffffffffffffffffffffffffffffffffffffffff167fddf252ad1be2c89b69c2b068fc378daa952ba7f163c4a11628f55a4df523b3ef83604051611cd6919061219b565b60405180910390a3611cea60008383611f90565b5050565b6000600560009054906101000a900473ffffffffffffffffffffffffffffffffffffffff16905081600560006101000a81548173ffffffffffffffffffffffffffffffffffffffff021916908373ffffffffffffffffffffffffffffffffffffffff1602179055508173ffffffffffffffffffffffffffffffffffffffff168173ffffffffffffffffffffffffffffffffffffffff167f8be0079c531659141344cd1fd0a4f28419497f9722a3daafe3b4186f6b6457e060405160405180910390a35050565b600073ffffffffffffffffffffffffffffffffffffffff168273ffffffffffffffffffffffffffffffffffffffff161415611e24576040517f08c379a0000000000000000000000000000000000000000000000000000000008152600401611e1b90612b78565b60405180910390fd5b611e3082600083611f8b565b60008060008473ffffffffffffffffffffffffffffffffffffffff1673ffffffffffffffffffffffffffffffffffffffff16815260200190815260200160002054905081811015611eb6576040517f08c379a0000000000000000000000000000000000000000000000000000000008152600401611ead90612c0a565b60405180910390fd5b8181036000808573ffffffffffffffffffffffffffffffffffffffff1673ffffffffffffffffffffffffffffffffffffffff168152602001908152602001600020819055508160026000828254611f0d91906125ff565b92505081905550600073ffffffffffffffffffffffffffffffffffffffff168373ffffffffffffffffffffffffffffffffffffffff167fddf252ad1be2c89b69c2b068fc378daa952ba7f163c4a11628f55a4df523b3ef84604051611f72919061219b565b60405180910390a3611f8683600084611f90565b505050565b505050565b505050565b600081519050919050565b600082825260208201905092915050565b60005b83811015611fcf578082015181840152602081019050611fb4565b83811115611fde576000848401525b50505050565b6000601f19601f8301169050919050565b600061200082611f95565b61200a8185611fa0565b935061201a818560208601611fb1565b61202381611fe4565b840191505092915050565b600060208201905081810360008301526120488184611ff5565b905092915050565b600080fd5b600073ffffffffffffffffffffffffffffffffffffffff82169050919050565b600061208082612055565b9050919050565b61209081612075565b811461209b57600080fd5b50565b6000813590506120ad81612087565b92915050565b6000819050919050565b6120c6816120b3565b81146120d157600080fd5b50565b6000813590506120e3816120bd565b92915050565b60008060408385031215612100576120ff612050565b5b600061210e8582860161209e565b925050602061211f858286016120d4565b9150509250929050565b60008115159050919050565b61213e81612129565b82525050565b60006020820190506121596000830184612135565b92915050565b60006020828403121561217557612174612050565b5b60006121838482850161209e565b91505092915050565b612195816120b3565b82525050565b60006020820190506121b0600083018461218c565b92915050565b6000806000606084860312156121cf576121ce612050565b5b60006121dd8682870161209e565b93505060206121ee8682870161209e565b92505060406121ff868287016120d4565b9150509250925092565b600060ff82169050919050565b61221f81612209565b82525050565b600060208201905061223a6000830184612216565b92915050565b60006020828403121561225657612255612050565b5b6000612264848285016120d4565b91505092915050565b61227681612075565b82525050565b6000602082019050612291600083018461226d565b92915050565b600080604083850312156122ae576122ad612050565b5b60006122bc8582860161209e565b92505060206122cd8582860161209e565b9150509250929050565b60006040820190506122ec6000830185612135565b6122f9602083018461218c565b9392505050565b7f4e487b7100000000000000000000000000000000000000000000000000000000600052602260045260246000fd5b6000600282049050600182168061234757607f821691505b6020821081141561235b5761235a612300565b5b50919050565b7f4e487b7100000000000000000000000000000000000000000000000000000000600052603260045260246000fd5b7f4e487b7100000000000000000000000000000000000000000000000000000000600052601160045260246000fd5b60006123ca826120b3565b91506123d5836120b3565b9250827fffffffffffffffffffffffffffffffffffffffffffffffffffffffffffffffff0382111561240a57612409612390565b5b828201905092915050565b7f4f776e61626c653a2063616c6c6572206973206e6f7420746865206f776e6572600082015250565b600061244b602083611fa0565b915061245682612415565b602082019050919050565b6000602082019050818103600083015261247a8161243e565b9050919050565b7f596f75206e656564206d6f6e657920666f722074686973207472616e7361637460008201527f696f6e0000000000000000000000000000000000000000000000000000000000602082015250565b60006124dd602383611fa0565b91506124e882612481565b604082019050919050565b6000602082019050818103600083015261250c816124d0565b9050919050565b600061251e826120b3565b9150612529836120b3565b9250817fffffffffffffffffffffffffffffffffffffffffffffffffffffffffffffffff048311821515161561256257612561612390565b5b828202905092915050565b7f45524332303a2064656372656173656420616c6c6f77616e63652062656c6f7760008201527f207a65726f000000000000000000000000000000000000000000000000000000602082015250565b60006125c9602583611fa0565b91506125d48261256d565b604082019050919050565b600060208201905081810360008301526125f8816125bc565b9050919050565b600061260a826120b3565b9150612615836120b3565b92508282101561262857612627612390565b5b828203905092915050565b7f4e487b7100000000000000000000000000000000000000000000000000000000600052603160045260246000fd5b7f4e487b7100000000000000000000000000000000000000000000000000000000600052601260045260246000fd5b600061269c826120b3565b91506126a7836120b3565b9250826126b7576126b6612662565b5b828204905092915050565b7f4f776e61626c653a206e6577206f776e657220697320746865207a65726f206160008201527f6464726573730000000000000000000000000000000000000000000000000000602082015250565b600061271e602683611fa0565b9150612729826126c2565b604082019050919050565b6000602082019050818103600083015261274d81612711565b9050919050565b7f45524332303a20617070726f76652066726f6d20746865207a65726f2061646460008201527f7265737300000000000000000000000000000000000000000000000000000000602082015250565b60006127b0602483611fa0565b91506127bb82612754565b604082019050919050565b600060208201905081810360008301526127df816127a3565b9050919050565b7f45524332303a20617070726f766520746f20746865207a65726f20616464726560008201527f7373000000000000000000000000000000000000000000000000000000000000602082015250565b6000612842602283611fa0565b915061284d826127e6565b604082019050919050565b6000602082019050818103600083015261287181612835565b9050919050565b7f45524332303a20696e73756666696369656e7420616c6c6f77616e6365000000600082015250565b60006128ae601d83611fa0565b91506128b982612878565b602082019050919050565b600060208201905081810360008301526128dd816128a1565b9050919050565b7f45524332303a207472616e736665722066726f6d20746865207a65726f20616460008201527f6472657373000000000000000000000000000000000000000000000000000000602082015250565b6000612940602583611fa0565b915061294b826128e4565b604082019050919050565b6000602082019050818103600083015261296f81612933565b9050919050565b7f45524332303a207472616e7366657220746f20746865207a65726f206164647260008201527f6573730000000000000000000000000000000000000000000000000000000000602082015250565b60006129d2602383611fa0565b91506129dd82612976565b604082019050919050565b60006020820190508181036000830152612a01816129c5565b9050919050565b7f45524332303a207472616e7366657220616d6f756e742065786365656473206260008201527f616c616e63650000000000000000000000000000000000000000000000000000602082015250565b6000612a64602683611fa0565b9150612a6f82612a08565b604082019050919050565b60006020820190508181036000830152612a9381612a57565b9050919050565b7f45524332303a206d696e7420746f20746865207a65726f206164647265737300600082015250565b6000612ad0601f83611fa0565b9150612adb82612a9a565b602082019050919050565b60006020820190508181036000830152612aff81612ac3565b9050919050565b7f45524332303a206275726e2066726f6d20746865207a65726f2061646472657360008201527f7300000000000000000000000000000000000000000000000000000000000000602082015250565b6000612b62602183611fa0565b9150612b6d82612b06565b604082019050919050565b60006020820190508181036000830152612b9181612b55565b9050919050565b7f45524332303a206275726e20616d6f756e7420657863656564732062616c616e60008201527f6365000000000000000000000000000000000000000000000000000000000000602082015250565b6000612bf4602283611fa0565b9150612bff82612b98565b604082019050919050565b60006020820190508181036000830152612c2381612be7565b905091905056fea2646970667358221220449fd750cfbdd20d59e467f3fd8fab28bd48076b0dab4eab29054aaa4898dc8864736f6c634300080c0033",
  "immutableReferences": {},
  "source": "// SPDX-License-Identifier: MIT\r\npragma solidity >=0.8.0;\r\n\r\nimport \"@openzeppelin/contracts/token/ERC20/ERC20.sol\";\r\nimport \"@openzeppelin/contracts/access/Ownable.sol\";\r\nimport \"@openzeppelin/contracts/utils/math/SafeMath.sol\";\r\n\r\ncontract LoveOfMyLife is ERC20, Ownable {\r\n    using SafeMath for uint256;\r\n    address[] internal stakeholders;\r\n    uint256 public rate = 1000;\r\n\r\n    mapping(address => uint256) internal stakes;\r\n    mapping(address => uint256) internal rewards;\r\n    \r\n   \r\n    constructor() ERC20(\"LoveOfMyLife\", \"LOML\") {\r\n        _mint(msg.sender, 1000 * 10 ** decimals());\r\n    }\r\n\r\n    // set purchase rate working\r\n    function modifyTokenBuyPrice(uint256 newRate) public onlyOwner {\r\n        rate = newRate;\r\n    }\r\n    \r\n    // purchase tokens working\r\n    // function buyToken(address buyer, uint256 amount) public payable {\r\n    function buyToken(address buyer) public payable returns (uint256 amount) {\r\n        require (msg.value > 0, \"You need money for this transaction\");\r\n        amount = msg.value * rate;\r\n        _mint(buyer, amount);\r\n    }\r\n\r\n\r\n    // to verify stakeholder working\r\n    // s = verified\r\n    //  _address = stakeholder_address\r\n    function isStakeholder(address stakeholder_address) public view returns(bool, uint256) {\r\n        for (\r\n            uint256 verified = 0;\r\n            verified < stakeholders.length;\r\n            verified += 1){\r\n                if (stakeholder_address == stakeholders[verified]) return (true, verified);\r\n            }\r\n        return (false, 0);\r\n    }\r\n    \r\n\r\n    // to add a stakeholder working\r\n    // _stakeholder = staker\r\n    function addStakeholder(address staker) public {\r\n        (bool _isStakeholder, ) = isStakeholder(staker);\r\n        if(!_isStakeholder) stakeholders.push(staker);\r\n    }\r\n\r\n    // to remove a stakeholder working\r\n    function removeStakeholder(address staker) public {\r\n        (bool _isStakeholder, uint256 verified) = isStakeholder(staker);\r\n        if(_isStakeholder){\r\n            stakeholders[verified] = stakeholders[stakeholders.length - 1];\r\n            stakeholders.pop();\r\n        }\r\n    }\r\n\r\n    // view list of stakeholders\r\n    function viewStakeholder(address staker) public {\r\n        (bool _isStakeholder,) = isStakeholder(staker);\r\n        if(!_isStakeholder) stakeholders.push(staker);\r\n    }\r\n\r\n    \r\n    // check amount staked by a stakeholder working\r\n    function stakeOf(address staker) public view returns (uint256) {\r\n        return stakes[staker];\r\n    }\r\n\r\n\r\n    // check total of all stakes working\r\n    function combinedStake() public view returns(uint256) {\r\n        uint256 totalStakes = 0;\r\n        for (\r\n            uint256 verified = 0; \r\n            verified < stakeholders.length; \r\n            verified += 1){\r\n                totalStakes = totalStakes.add(stakes[stakeholders[verified]]);\r\n            }\r\n        return totalStakes;\r\n    }\r\n\r\n\r\n    // for stakeholder to add a stake working\r\n    function createStake(address staker, uint256 _stake) public {\r\n        _burn(staker, _stake);\r\n        if(stakes[staker] == 0) addStakeholder(staker);\r\n        stakes[staker] = stakes[staker].add(_stake);\r\n    }\r\n\r\n\r\n    // for stakeholder to remove a stake working\r\n    function removeStake(address staker, uint256 _stake) public {\r\n        stakes[staker] = stakes[staker].sub(_stake);\r\n        if(stakes[staker] == 0) removeStakeholder(staker);\r\n        _mint(staker, _stake);\r\n    }\r\n\r\n    // 0x5B38Da6a701c568545dCfcB03FcB875f56beddC4\r\n    // 0xAb8483F64d9C6d1EcF9b849Ae677dD3315835cb2\r\n    // 0x4B20993Bc481177ec7E8f571ceCaE8A9e22C02db\r\n    // 0x78731D3Ca6b7E34aC0F824c42a7cC18A495cabaB\r\n    // 0xe7150d315F8930f040Bc9d3AC40162cA78FcfaA1\r\n    // 0x583031D1113aD414F02576BD6afaBfb302140225\r\n\r\n\r\n    // check stakeholder reward\r\n    function rewardOf(address staker) public view returns(uint256) {\r\n        return rewards[staker];\r\n    }\r\n\r\n    // check all stakeholder rewards\r\n    function combinedRewards() public view returns(uint256) {\r\n        uint256 totalRewards = 0;\r\n        for (\r\n            uint256 verified = 0; \r\n            verified < stakeholders.length; \r\n            verified += 1){\r\n                totalRewards = totalRewards.add(rewards[stakeholders[verified]]);\r\n            }\r\n        return totalRewards;\r\n    }\r\n\r\n\r\n    // // calculate reward per stakeholder\r\n    // function calculateReward(address staker) public view returns(uint256) {\r\n    //     return stakes[staker] * 1/100;\r\n    // }\r\n\r\n\r\n    // calculate reward per stakeholder\r\n    function calculateReward(address staker) public view returns(uint256) {\r\n        return stakes[staker] /100;\r\n    }\r\n\r\n\r\n    // share rewards to stakeholders\r\n    function distributeRewards() public onlyOwner {\r\n        for (\r\n            uint256 verified = 0;\r\n            verified < stakeholders.length;\r\n            verified += 1){\r\n                address stakeholder = stakeholders[verified];\r\n                uint256 reward = calculateReward(stakeholder);\r\n                rewards[stakeholder] = rewards[stakeholder].add(reward);\r\n            }\r\n        }\r\n    }\r\n",
  "sourcePath": "C:\\Users\\anyan\\OneDrive\\desktop\\blockgamesWeb3\\task4\\contracts\\LoveOfMyLife.sol",
  "compiler": {
    "name": "solc",
    "version": "0.8.12+commit.f00d7308.Emscripten.clang"
  },
  "schemaVersion": "3.4.6",
  "updatedAt": "2022-03-20T17:34:48.957Z",
  "devdoc": {
    "kind": "dev",
    "methods": {
      "allowance(address,address)": {
        "details": "See {IERC20-allowance}."
      },
      "approve(address,uint256)": {
        "details": "See {IERC20-approve}. NOTE: If `amount` is the maximum `uint256`, the allowance is not updated on `transferFrom`. This is semantically equivalent to an infinite approval. Requirements: - `spender` cannot be the zero address."
      },
      "balanceOf(address)": {
        "details": "See {IERC20-balanceOf}."
      },
      "decimals()": {
        "details": "Returns the number of decimals used to get its user representation. For example, if `decimals` equals `2`, a balance of `505` tokens should be displayed to a user as `5.05` (`505 / 10 ** 2`). Tokens usually opt for a value of 18, imitating the relationship between Ether and Wei. This is the value {ERC20} uses, unless this function is overridden; NOTE: This information is only used for _display_ purposes: it in no way affects any of the arithmetic of the contract, including {IERC20-balanceOf} and {IERC20-transfer}."
      },
      "decreaseAllowance(address,uint256)": {
        "details": "Atomically decreases the allowance granted to `spender` by the caller. This is an alternative to {approve} that can be used as a mitigation for problems described in {IERC20-approve}. Emits an {Approval} event indicating the updated allowance. Requirements: - `spender` cannot be the zero address. - `spender` must have allowance for the caller of at least `subtractedValue`."
      },
      "increaseAllowance(address,uint256)": {
        "details": "Atomically increases the allowance granted to `spender` by the caller. This is an alternative to {approve} that can be used as a mitigation for problems described in {IERC20-approve}. Emits an {Approval} event indicating the updated allowance. Requirements: - `spender` cannot be the zero address."
      },
      "name()": {
        "details": "Returns the name of the token."
      },
      "owner()": {
        "details": "Returns the address of the current owner."
      },
      "renounceOwnership()": {
        "details": "Leaves the contract without owner. It will not be possible to call `onlyOwner` functions anymore. Can only be called by the current owner. NOTE: Renouncing ownership will leave the contract without an owner, thereby removing any functionality that is only available to the owner."
      },
      "symbol()": {
        "details": "Returns the symbol of the token, usually a shorter version of the name."
      },
      "totalSupply()": {
        "details": "See {IERC20-totalSupply}."
      },
      "transfer(address,uint256)": {
        "details": "See {IERC20-transfer}. Requirements: - `to` cannot be the zero address. - the caller must have a balance of at least `amount`."
      },
      "transferFrom(address,address,uint256)": {
        "details": "See {IERC20-transferFrom}. Emits an {Approval} event indicating the updated allowance. This is not required by the EIP. See the note at the beginning of {ERC20}. NOTE: Does not update the allowance if the current allowance is the maximum `uint256`. Requirements: - `from` and `to` cannot be the zero address. - `from` must have a balance of at least `amount`. - the caller must have allowance for ``from``'s tokens of at least `amount`."
      },
      "transferOwnership(address)": {
        "details": "Transfers ownership of the contract to a new account (`newOwner`). Can only be called by the current owner."
      }
    },
    "version": 1
  },
  "userdoc": {
    "kind": "user",
    "methods": {},
    "version": 1
  }
}